:020000040800F2
:1000000000000220E5160008591600085F160008D7
:10001000651600086B160008711600080000000045
:10002000000000000000000000000000771600083B
:10003000851600080000000093160008A1160008AD
:100040003517000835170008351700083517000860
:100050003517000835170008351700083517000850
:100060003517000835170008351700083517000840
:100070003517000835170008351700083517000830
:100080003517000835170008351700083517000820
:100090003517000835170008351700083517000810
:1000A00035170008AD160008351700083517000889
:1000B00035170008351700083517000835170008F0
:1000C00035170008351700083517000835170008E0
:1000D00035170008351700083517000835170008D0
:1000E00035170008351700083517000835170008C0
:1000F00035170008351700083517000835170008B0
:10010000351700083517000835170008351700089F
:10011000351700083517000835170008351700088F
:10012000351700083517000835170008351700087F
:10013000351700083517000835170008351700086F
:10014000351700083517000835170008351700085F
:10015000351700083517000835170008351700084F
:10016000351700083517000835170008351700083F
:100170003517000835170008351700080000000083
:080180003517000835170008CF
:1001880010B5054C237833B9044B13B10448AFF3C9
:1001980000800123237010BD0C0000200000000027
:1001A8000C4B000808B5034B1BB103490348AFF3D8
:1001B800008008BD00000000100000200C4B000863
:1001C80070B54FF0FF0C4CF4E06C1CEA11541DBFE5
:1001D8001CEA135594EA0C0F95EA0C0F00F0DEF8B0
:1001E8002C4481EA030621EA4C5123EA4C5350EA95
:1001F800013518BF52EA033541F4801143F48013E6
:1002080038D0A0FB02CE4FF00005E1FB02E506F076
:100218000042E0FB03E54FF00006E1FB03569CF0CB
:10022800000F18BF4EF0010EA4F1FF04B6F5007FD1
:1002380064F5407404D25FEA4E0E6D4146EB060643
:1002480042EAC62141EA55514FEAC52040EA5E50CC
:100258004FEACE2EB4F1FD0C88BFBCF5E06F1ED876
:10026800BEF1004F08BF5FEA500E50F1000041EBAD
:10027800045170BD06F0004646EA010140EA02005A
:1002880081EA0301B4EB5C04C2BFD4EB0C0541EA7C
:10029800045170BD41F480114FF0000E013C00F391
:1002A800AB8014F1360FDEBF002001F0004170BDB5
:1002B800C4F10004203C35DA0C341BDC04F11404CE
:1002C800C4F1200500FA05F320FA04F001FA05F25A
:1002D80040EA020001F0004221F0004110EBD37027
:1002E80021FA04F642EB06015EEA430E08BF20EA53
:1002F800D37070BDC4F10C04C4F1200500FA04F3F6
:1003080020FA05F001FA04F240EA020001F0004187
:1003180010EBD37041F100015EEA430E08BF20EAFA
:10032800D37070BDC4F1200500FA05F24EEA020E42
:1003380020FA04F301FA05F243EA020321FA04F071
:1003480001F0004121FA04F220EA020000EBD37028
:100358005EEA430E08BF20EAD37070BD94F0000F28
:100368000FD101F00046400041EB010111F4801F5C
:1003780008BF013CF7D041EA060195F0000F18BF0D
:10038800704703F00046520043EB030313F4801F49
:1003980008BF013DF7D043EA0603704794EA0C0F03
:1003A8000CEA135518BF95EA0C0F0CD050EA410619
:1003B80018BF52EA4306D1D181EA030101F0004196
:1003C8004FF0000070BD50EA410606BF10461946BE
:1003D80052EA430619D094EA0C0F02D150EA0136CA
:1003E80013D195EA0C0F05D152EA03361CBF10460B
:1003F80019460AD181EA030101F0004141F0FE41AA
:1004080041F470014FF0000070BD41F0FE4141F42D
:10041800780170BD81F0004102E000BF83F0004325
:1004280030B54FEA41044FEA430594EA050F08BF87
:1004380090EA020F1FBF54EA000C55EA020C7FEA4B
:10044800645C7FEA655C00F0E2804FEA5454D4EBC8
:100458005555B8BF6D420CDD2C4480EA020281EA92
:10046800030382EA000083EA010180EA020281EACA
:100478000303362D88BF30BD11F0004F4FEA01311C
:100488004FF4801C4CEA113102D0404261EB41012B
:1004980013F0004F4FEA03334CEA133302D05242B1
:1004A80063EB430394EA050F00F0A780A4F101046D
:1004B800D5F1200E0DDB02FA0EFC22FA05F28018A7
:1004C80041F1000103FA0EF2801843FA05F359418D
:1004D8000EE0A5F120050EF1200E012A03FA0EFC0C
:1004E80028BF4CF0020C43FA05F3C01851EBE37136
:1004F80001F0004507D54FF0000EDCF1000C7EEB53
:1005080000006EEB0101B1F5801F1BD3B1F5001F90
:100518000CD349085FEA30004FEA3C0C04F10104AF
:100528004FEA445212F5800F80F09A80BCF1004FD8
:1005380008BF5FEA500C50F1000041EB045141EA5A
:10054800050130BD5FEA4C0C404141EB0101013C23
:1005580028BFB1F5801FE9D291F0000F04BF014612
:100568000020B1FA81F308BF2033A3F10B03B3F1E4
:1005780020020CDA0C3208DD02F1140CC2F10C0274
:1005880001FA0CF021FA02F10CE002F11402D8BFD2
:10059800C2F1200C01FA02F120FA0CFCDCBF41EA9E
:1005A8000C019040E41AA2BF01EB0451294330BD6D
:1005B8006FEA04041F3C1CDA0C340EDC04F114044A
:1005C800C4F1200220FA04F001FA02F340EA030021
:1005D80021FA04F345EA030130BDC4F10C04C4F167
:1005E800200220FA02F001FA04F340EA0300294647
:1005F80030BD21FA04F0294630BD94F0000F83F491
:10060800801306BF81F480110134013D4EE77FEA73
:10061800645C18BF7FEA655C29D094EA050F08BFBF
:1006280090EA020F05D054EA000C04BF19461046A0
:1006380030BD91EA030F1EBF0021002030BD5FEAE4
:10064800545C05D14000494128BF41F0004130BD0C
:1006580014F580043CBF01F5801130BD01F0004560
:1006680045F0FE4141F470014FF0000030BD7FEAD3
:10067800645C1ABF194610467FEA655C1CBF0B46CE
:10068800024650EA013406BF52EA033591EA030FE5
:1006980041F4002130BD00BF90F0000F04BF0021DD
:1006A800704730B54FF4806404F132044FF0000510
:1006B8004FF0000150E700BF90F0000F04BF002189
:1006C800704730B54FF4806404F1320410F00045EF
:1006D80048BF40424FF000013EE700BF42004FEAEA
:1006E800E2014FEA31014FEA02701FBF12F07F4367
:1006F80093F07F4F81F06051704732F07F4208BF1E
:10070800704793F07F4F04BF41F40021704730B524
:100718004FF4607401F0004521F000411CE700BF70
:1007280050EA010208BF704730B54FF000050AE0F3
:1007380050EA010208BF704730B511F0004502D5F4
:10074800404261EB41014FF4806404F132045FEAF6
:10075800915C3FF4D8AE4FF003025FEADC0C18BF9F
:1007680003325FEADC0C18BF033202EBDC02C2F191
:10077800200300FA03FC20FA02F001FA03FE40EA23
:100788000E0021FA02F11444BDE600BF4FF0FF3C11
:1007980006E000BF4FF0010C02E000BF4FF0010C73
:1007A8004DF804CD4FEA410C7FEA6C5C4FEA430CEC
:1007B80018BF7FEA6C5C1BD001B050EA410C0CBF3B
:1007C80052EA430C91EA030F02BF90EA020F00209D
:1007D800704710F1000F91EA030F58BF994208BF04
:1007E80090422CBFD8176FEAE37040F001007047C1
:1007F8004FEA410C7FEA6C5C02D150EA013C07D118
:100808004FEA430C7FEA6C5CD6D152EA033CD3D062
:100818005DF8040B704700BF8446104662468C465C
:100828001946634600E000BF01B5FFF7B7FF00288F
:1008380048BF10F1000F01BD4DF808EDFFF7F4FFB8
:100848000CBF012000205DF808FB00BF4DF808ED43
:10085800FFF7EAFF34BF012000205DF808FB00BF66
:100868004DF808EDFFF7E0FF94BF012000205DF888
:1008780008FB00BF4DF808EDFFF7CEFF94BF01203D
:1008880000205DF808FB00BF4DF808EDFFF7C4FF36
:1008980034BF012000205DF808FB00BF4FEA410289
:1008A80012F5001215D211D56FF47873B3EB6252BA
:1008B80012D94FEAC12343F0004343EA505311F0E1
:1008C800004F23FA02F018BF404270474FF0000073
:1008D800704750EA013005D111F0004008BF6FF0B1
:1008E800004070474FF00000704700BF4A0011D227
:1008F80012F5001211D20DD56FF47873B3EB625272
:100908000ED44FEAC12343F0004343EA505323FA7D
:1009180002F070474FF00000704750EA013002D1F2
:100928004FF0FF3070474FF0000070474FEA410228
:10093800B2F1E04324BFB3F5001CDCF1FE5C0DD935
:1009480001F0004C4FEAC0024CEA5070B2F1004F7F
:1009580040EB830008BF20F00100704711F0804F82
:1009680021D113F13872BCBF01F00040704741F447
:1009780080114FEA5252C2F11802C2F1200C10FA4B
:100988000CF320FA02F018BF40F001004FEAC1232F
:100998004FEAD32303FA0CFC40EA0C0023FA02F3D3
:1009A8004FEA4303CCE77FEA625307D150EA0133A9
:1009B8001EBF4FF0FE4040F44000704701F0004079
:1009C80040F0FE4040F40000704700BF53B94AB9F8
:1009D800002908BF00281CBF4FF0FF314FF0FF303F
:1009E80000F06EB9ADF1080C6DE904CE00F006F820
:1009F800DDF804E0DDE9022304B070472DE9F04793
:100A0800089D04468C46002B40F083808A42174696
:100A180047D9B2FA82F242B1C2F1200024FA00F0BA
:100A28009140974040EA010C94404FEA1748230C44
:100A3800BCFBF8F61FFA87FE08FB16C143EA014320
:100A480006FB0EF1994209D9FB1806F1FF3080F038
:100A58001981994240F21681023E3B445B1AA4B2C6
:100A6800B3FBF8F008FB103344EA034400FB0EFE26
:100A7800A64509D93C1900F1FF3380F00581A64548
:100A880040F2028102383C4440EA0640A4EB0E04DE
:100A980000261DB1D4400023C5E900433146BDE816
:100AA800F08702B9FFDEB2FA82F2002A50D1CB1BDE
:100AB8004FEA174E1FFA87F80126B3FBFEFC210CFC
:100AC8000EFB1C3341EA034108FB0CF38B4207D9A8
:100AD80079180CF1FF3002D28B4200F2E98084468B
:100AE800C91AA3B2B1FBFEF00EFB101143EA014490
:100AF80008FB00F8A04507D93C1900F1FF3302D2E2
:100B0800A04500F2D9801846A4EB080440EA0C403E
:100B1800BFE78B4209D9002D00F0B1800026C5E956
:100B2800000130463146BDE8F087B3FA83F6002E5F
:100B38004AD18B4202D3824200F2B880841A61EB18
:100B4800030101208C46002DA8D0C5E9004CA5E77B
:100B5800C2F1200320FA03F6974001FA02F04FEAA7
:100B6800174ED9403043030CB1FBFEF61FFA87F845
:100B78000EFB161143EA014306FB08F1994204FAF9
:100B880002F409D9FB1806F1FF3C80F08D809942E8
:100B980040F28A80023E3B445B1A81B2B3FBFEF00E
:100BA8000EFB103341EA034100FB08F38B4207D9DF
:100BB800791800F1FF3C73D28B4271D9023839445D
:100BC800CB1A40EA064678E7C6F1200C03FA06F489
:100BD80022FA0CF31C4320FA0CF701FA06F34FEA49
:100BE800144E21FA0CF11F433B0CB1FBFEF91FFA1E
:100BF80084F80EFB191143EA014109FB08FA8A45FA
:100C080002FA06F200FA06F308D9611809F1FF3072
:100C180048D28A4546D9A9F102092144A1EB0A0123
:100C2800BFB2B1FBFEF00EFB101147EA014700FB13
:100C380008F8B84507D9E71900F1FF312ED2B845B1
:100C48002CD90238274440EA0940A7EB0807A0FB43
:100C580002894F45C64649461AD317D05DB1B3EB52
:100C68000E0267EB010707FA0CFCF2404CEA02029D
:100C7800F740C5E9002700263146BDE8F0872E4633
:100C880028460BE70646E9E61846FDE64345E5D261
:100C9800B8EB020E69EB04010138DFE70846D2E73A
:100CA80060468DE78146B9E7664675E730464AE70C
:100CB800ACF1020C394413E702383C4424E700BF86
:100CC800704700BF80B500AF00F032FD00F022F899
:100CD80000F048F900F088F80D4801F0C5FC002143
:100CE8000B4801F08BFD0421094801F087FD08211C
:100CF800074801F083FD0021054802F081FC04212A
:100D0800034802F07DFC0821014802F079FCFEE767
:100D18004C00002080B594B000AF07F120033022CA
:100D28000021184602F0B0FE07F10C0300221A60F9
:100D38005A609A60DA601A610023BB60284B1B6C0A
:100D4800274A43F080531364254B1B6C03F08053F0
:100D5800BB60BB6800237B60224B1B68214A43F4BD
:100D6800804313601F4B1B6803F480437B607B68E0
:100D780002233B620123FB6210233B630223BB6314
:100D88000023FB6308233B64A8237B640223BB6422
:100D98000423FB6407F12003184601F001F8034619
:100DA800002B01D000F084FB0F23FB6002233B6182
:100DB80000237B614FF4A053BB614FF4A053FB6148
:100DC80007F10C030521184601F062FA0346002BCF
:100DD80001D000F06DFB00BF5037BD4680BD00BF9D
:100DE800003802400070004080B596B000AF07F1AF
:100DF800480300221A605A609A60DA6007F14003DB
:100E080000221A605A6007F1240300221A605A600F
:100E18009A60DA601A615A619A613B1D20220021AA
:100E2800184602F031FE4D4B4D4A1A604B4B0022DA
:100E38005A604A4B20229A60484B41F26702DA60B6
:100E4800464B00221A61454B13225A61434B8022BC
:100E58009A61424801F0B8FB0346002B01D000F02C
:100E680027FB4FF48053BB6407F1480319463B48FE
:100E780001F0C6FF0346002B01D000F019FB3748EC
:100E880001F062FC0346002B01D000F011FB0023A7
:100E98003B6400237B6407F1400319462F4802F0A6
:100EA800C7FC0346002B01D000F002FB60237B62E5
:100EB8006523BB620023FB6200233B6300237B6343
:100EC8000023BB630023FB6307F1240300221946B8
:100ED800224801F0D3FE0346002B01D000F0E8FAC7
:100EE8006623BB6207F12403042219461B4801F05C
:100EF800C5FE0346002B01D000F0DAFA6723BB6277
:100F080007F1240308221946144801F0B7FE0346E6
:100F1800002B01D000F0CCFA00237B600023BB60DB
:100F28000023FB60A8233B614FF480537B614FF49F
:100F38000053BB6100233B623B1D1946074802F082
:100F4800F3FC0346002B01D000F0B2FA034800F08E
:100F580005FB00BF5837BD4680BD00BF4C000020D0
:100F68000000014080B58AB000AF07F114030022E9
:100F78001A605A609A60DA601A6100233B61294B53
:100F88001B6B284A43F001031363264B1B6B03F0CA
:100F980001033B613B690023FB60224B1B6B214A29
:100FA80043F0040313631F4B1B6B03F00403FB6044
:100FB800FB680023BB601B4B1B6B1A4A43F0020300
:100FC8001363184B1B6B03F00203BB60BB68002361
:100FD8007B60144B1B6B134A43F010031363114BD4
:100FE8001B6B03F010037B607B6870237B6100231D
:100FF800BB610223FB6107F1140319460A4800F09C
:101008001BFD10237B610023BB610023FB6107F1FB
:1010180014031946054800F00FFD00BF2837BD46E8
:1010280080BD00BF003802400000024000080240B6
:101038002DE9B04382B000AF78603D4B1B88013387
:101048009AB23B4B1A8010213A4800F091FE0346B1
:101058001A46394B1A702021364800F089FE03469B
:101068001A46364B1A70364B00221A70324B1B78D0
:10107800002B1BD1334B1B78012B17D10021324891
:1010880001F0BCFB0421304801F0B8FB08212E48D0
:1010980001F0B4FB00212C4802F0B2FA04212A48DE
:1010A80002F0AEFA0821284802F0AAFA224B1A7870
:1010B800244B1A70204B1B78012B00F0A9811F4B81
:1010C8001B78012B06D11E4B1B78002B02D11F4B1E
:1010D8001F4A1A601A4B1B78012B03D11B4B4FF088
:1010E80000021A601B4B93ED007A184BD3ED007A7F
:1010F800B4EEE77AF1EE10FA30D5164BD3ED007A5C
:101108009FED157A77EE877A124BC3ED007A114B73
:1011180093ED007A0D4BD3ED007AB4EEE77AF1EE59
:1011280010FA3FDD094B1B680A4A13603AE000BF1A
:10113800460000200000024048000020490000202E
:101148004A0000204B0000204C00002038000020FE
:101158000000C8413C0000200AD7A33BC64B93EDD2
:10116800007AC64BD3ED007AB4EEE77AF1EE10FAC6
:1011780018DDC14BD3ED007A9FEDC17A77EEC77ABF
:10118800BD4BC3ED007ABC4B93ED007ABB4BD3ED5E
:10119800007AB4EEE77AF1EE10FA03D5B74B1B6884
:1011A800B54A1360B44B93ED007ADFEDB66AC7EE2B
:1011B800267AB54BC3ED007AB44B1B68B44A13606A
:1011C800AD4B1B681846FFF789FAA3A3D3E90023A0
:1011D800FEF7F6FF02460B4610461946FFF7A6FB38
:1011E8000346AC4A1360AB4B1B681846FFF776FA08
:1011F8009BA3D3E90023FEF7E3FF02460B46144600
:101208001D46A34B1B681846FFF768FA02460B46B3
:1012180020462946FFF704F902460B4610461946B0
:10122800FFF784FB0346994A1360984B1B681846DE
:10123800FFF754FA88A3D3E90023FFF71BFB034603
:10124800002B12D0914B1B681846FFF747FA82A370
:10125800D3E90023FFF7E2F802460B461046194689
:10126800FFF764FB0346894A1360874BD3ED007A86
:101278009FED897A67EE877A17EE900AFFF72EFAC4
:1012880004460D46804BD3ED007A9FED837A67EED6
:10129800877A17EE900AFFF721FA804689467B4B3A
:1012A8001B681846FFF71AFA02460B4643EC102B48
:1012B80002F0F2FB53EC102B40464946FEF780FF44
:1012C80002460B4620462946FFF7AAF802460B4677
:1012D80010461946FFF70AFB03469AB26F4B1A806D
:1012E800694BD3ED007A9FED6C7A67EE877A17EE3B
:1012F800900AFFF7F3F904460D46634BD3ED007AE5
:101308009FED657A67EE877A17EE900AFFF7E6F9A0
:10131800804689465D4B1B681846FFF7DFF952A3E4
:10132800D3E90023FFF77CF802460B4643EC172B62
:10133800B0EE470AF0EE670A02F0AEFB53EC102B52
:1013480040464946FEF73CFF02460B4620462946E2
:10135800FFF766F802460B4610461946FFF7C6FA2D
:1013680003469AB24E4B1A80474BD3ED007A9FED55
:101378004A7A67EE877A17EE900AFFF7AFF90446C4
:101388000D46414BD3ED007A9FED437A67EE877A9D
:1013980017EE900AFFF7A2F9804689463B4B1B6877
:1013A8001846FFF79BF932A3D3E90023FFF738F873
:1013B80002460B4643EC172BB0EE470AF0EE670ADD
:1013C80002F06AFB53EC102B40464946FEF7F8FE44
:1013D80002460B4620462946FFF722F802460B46EE
:1013E80010461946FFF782FA03469AB22D4B1A8027
:1013F8002A4B1A882C4B1B685A63294B1A882A4B8C
:101408001B689A63274B1A88274B1B68DA631BE013
:10141800264B1B78012B17D10021234801F0B6FA7F
:101428000421214801F0B2FA08211F4801F0AEFA60
:1014380000211D4802F09EF904211B4802F09AF988
:101448000821194802F096F900BF0837BD46BDE8E3
:10145800B08300BFAFF300808BFD65F7E42119402E
:10146800FCA9F1D24D62503F6FF085C954C10040CC
:101478006FF085C954C110403C000020380000209E
:101488000AD7A33B0000484234000020280000206F
:101498002C000020300000200040034540000020C0
:1014A80042000020440000204C000020480000209A
:1014B80080B400AF72B600BFFEE7000080B483B00E
:1014C80000AF00237B60104B5B6C0F4A43F48043F2
:1014D80053640D4B5B6C03F480437B607B68002393
:1014E8003B60094B1B6C084A43F080531364064B5E
:1014F8001B6C03F080533B603B6800BF0C37BD4654
:101508005DF8047B704700BF0038024080B584B0A6
:1015180000AF78607B681B680E4A934215D10023A0
:10152800FB600D4B5B6C0C4A43F0010353640A4BA0
:101538005B6C03F00103FB60FB68002200211920AB
:1015480000F043FA192000F05CFA00BF1037BD46DE
:1015580080BD00BF000001400038024080B58AB05D
:1015680000AF786007F1140300221A605A609A608D
:10157800DA601A617B681B68304A93425AD10023AB
:101588003B612F4B1B6B2E4A43F0010313632C4B1B
:101598001B6B03F001033B613B690023FB60284B95
:1015A8001B6B274A43F002031363254B1B6B03F0A5
:1015B8000203FB60FB680023BB60214B1B6B204AC6
:1015C80043F0100313631E4B1B6B03F01003BB6047
:1015D800BB6880237B610223BB610023FB6100237E
:1015E8003B6201237B6207F114031946154800F09A
:1015F80023FA03237B610223BB610023FB610023E1
:101608003B6201237B6207F1140319460E4800F080
:1016180013FA4FF428537B610223BB610023FB615B
:1016280000233B6201237B6207F114031946074834
:1016380000F002FA00BF2837BD4680BD0000014017
:10164800003802400000024000040240001002403E
:1016580080B400AFFEE780B400AFFEE780B400AF0F
:10166800FEE780B400AFFEE780B400AFFEE780B4C9
:1016780000AF00BFBD465DF8047B704780B400AF83
:1016880000BFBD465DF8047B704780B400AF00BF63
:10169800BD465DF8047B704780B500AF00F09AF84E
:1016A80000BF80BD80B500AF024801F0DFF900BF80
:1016B80080BD00BF4C00002080B400AF064BD3F8BB
:1016C8008830054A43F47003C2F8883000BFBD462D
:1016D8005DF8047B704700BF00ED00E0DFF834D010
:1016E8000D480E490E4A002302E0D458C450043372
:1016F800C4188C42F9D30B4A0B4C002301E0136049
:101708000432A242FBD3FFF7D7FF02F099F9FFF7A3
:10171800D9FA704700000220000000200C000020C9
:10172800204D00080C00002098000020FEE7000073
:1017380080B500AF0E4B1B680D4A43F4007313606D
:101748000B4B1B680A4A43F480631360084B1B6801
:10175800074A43F480731360032000F02BF90F202D
:1017680000F008F8FFF7AAFE0023184680BD00BF66
:10177800003C024080B582B000AF7860124B1A6816
:10178800124B1B7819464FF47A73B3FBF1F3B2FB93
:10179800F3F3184600F043F90346002B01D0012368
:1017A8000EE07B680F2B0AD8002279684FF0FF30D3
:1017B80000F00BF9064A7B681360002300E0012360
:1017C80018460837BD4680BD0000002008000020EC
:1017D8000400002080B400AF064B1B781A46064B65
:1017E8001B681344044A136000BFBD465DF8047BC0
:1017F800704700BF080000209400002080B400AFAC
:10180800034B1B681846BD465DF8047B704700BF54
:101818009400002080B485B000AF78607B6803F046
:101828000703FB600C4BDB68BB60BA684FF6FF032D
:101838001340BB60FB681A02BB68134343F0BF63E5
:1018480043F40033BB60044ABB68D36000BF14375D
:10185800BD465DF8047B704700ED00E080B400AF42
:10186800044BDB681B0A03F007031846BD465DF806
:10187800047B704700ED00E080B483B000AF0346FE
:10188800FB7197F90730002B0BDBFB7903F01F0284
:10189800074997F907305B09012000FA02F241F87D
:1018A800232000BF0C37BD465DF8047B704700BF9E
:1018B80000E100E080B483B000AF03463960FB71FB
:1018C80097F90730002B0ADB3B68DAB20C4997F925
:1018D80007301201D2B20B4483F800230AE03B68B8
:1018E800DAB20849FB7903F00F03043B1201D2B2C4
:1018F8000B441A7600BF0C37BD465DF8047B704771
:1019080000E100E000ED00E080B489B000AFF860CD
:10191800B9607A60FB6803F00703FB61FB69C3F1F8
:101928000703042B28BF0423BB61FB690433062B80
:1019380002D9FB69033B00E000237B614FF0FF32D3
:10194800BB6902FA03F3DA43BB681A407B699A4021
:101958004FF0FF317B6901FA03F3D9437B680B40F1
:10196800134318462437BD465DF8047B70470000D2
:1019780080B582B000AF78607B68013BB3F1807FAF
:1019880001D301230FE00A4A7B68013B53600F2112
:101998004FF0FF30FFF78EFF054B00229A60044B93
:1019A80007221A60002318460837BD4680BD00BFCD
:1019B80010E000E080B582B000AF78607868FFF78B
:1019C80029FF00BF0837BD4680BD80B586B000AF8F
:1019D8000346B9607A60FB7300237B61FFF73EFF23
:1019E80078617A68B9687869FFF78EFF024697F9D7
:1019F8000F3011461846FFF75DFF00BF1837BD4688
:101A080080BD80B582B000AF0346FB7197F90730FF
:101A18001846FFF731FF00BF0837BD4680BD80B5C7
:101A280082B000AF78607868FFF7A2FF03461846D7
:101A38000837BD4680BD000080B489B000AF78602B
:101A4800396000237B6100233B610023BB610023D5
:101A5800FB616BE10122FB6902FA03F37B613B68DE
:101A68001B687A6913403B613A697B699A4240F086
:101A78005A813B685B6803F00303012B05D03B6880
:101A88005B6803F00303022B30D17B689B68BB6162
:101A9800FB695B00032202FA03F3DB43BA691340D4
:101AA800BB613B68DA68FB695B0002FA03F3BA6959
:101AB8001343BB617B68BA699A607B685B68BB61EA
:101AC8000122FB6902FA03F3DB43BA691340BB61E5
:101AD8003B685B681B0903F00102FB6902FA03F328
:101AE800BA691343BB617B68BA695A603B685B6833
:101AF80003F00303032B17D07B68DB68BB61FB692A
:101B08005B00032202FA03F3DB43BA691340BB61AB
:101B18003B689A68FB695B0002FA03F3BA691343EE
:101B2800BB617B68BA69DA603B685B6803F00303F2
:101B3800022B23D1FB69DA087B68083253F822307C
:101B4800BB61FB6903F007039B000F2202FA03F352
:101B5800DB43BA691340BB613B681A69FB6903F050
:101B680007039B0002FA03F3BA691343BB61FB69DD
:101B7800DA087B680832B96943F822107B681B6869
:101B8800BB61FB695B00032202FA03F3DB43BA691A
:101B98001340BB613B685B6803F00302FB695B00B1
:101BA80002FA03F3BA691343BB617B68BA691A6026
:101BB8003B685B6803F44033002B00F0B4800023DB
:101BC800FB60604B5B6C5F4A43F4804353645D4B3E
:101BD8005B6C03F48043FB60FB685B4AFB699B0812
:101BE800023352F82330BB61FB6903F003039B0007
:101BF8000F2202FA03F3DB43BA691340BB617B6827
:101C0800524A93422BD07B68514A934225D07B6835
:101C1800504A93421FD07B684F4A934219D07B6841
:101C28004E4A934213D07B684D4A93420DD07B684D
:101C38004C4A934207D07B684B4A934201D1072311
:101C48000EE008230CE006230AE0052308E004233D
:101C580006E0032304E0022302E0012300E000235E
:101C6800FA6902F0030292009340BA691343BB6118
:101C78003549FB699B080233BA6941F823203B4B7D
:101C88001B68BB613B69DB43BA691340BB613B68B6
:101C98005B6803F48033002B03D0BA693B691343B4
:101CA800BB61324ABB691360304B5B68BB613B69FF
:101CB800DB43BA691340BB613B685B6803F40033DC
:101CC800002B03D0BA693B691343BB61274ABB6940
:101CD8005360264B9B68BB613B69DB43BA69134081
:101CE800BB613B685B6803F48013002B03D0BA69BF
:101CF8003B691343BB611D4ABB6993601B4BDB689F
:101D0800BB613B69DB43BA691340BB613B685B68F5
:101D180003F40013002B03D0BA693B691343BB617A
:101D2800124ABB69D360FB690133FB61FB690F2B66
:101D38007FF690AE00BF00BF2437BD465DF8047B38
:101D4800704700BF003802400038014000000240E0
:101D58000004024000080240000C0240001002404B
:101D68000014024000180240001C0240003C0140E0
:101D780080B485B000AF78600B467B807B681A69B9
:101D88007B881340002B02D00123FB7301E0002362
:101D9800FB73FB7B18461437BD465DF8047B704720
:101DA80080B586B000AF78607B68002B01D1012335
:101DB80064E27B681B6803F00103002B75D0A34B1A
:101DC8009B6803F00C03042B0CD0A04B9B6803F01A
:101DD8000C03082B12D19D4B5B6803F48003B3F509
:101DE800800F0BD1994B1B6803F40033002B5BD099
:101DF8007B685B68002B57D101233FE27B685B68F7
:101E0800B3F5803F06D1914B1B68904A43F4803369
:101E180013601DE07B685B68B3F5A02F0CD18B4B7A
:101E28001B688A4A43F480231360884B1B68874ADF
:101E380043F4803313600BE0844B1B68834A23F41C
:101E480080331360814B1B68804A23F4802313601E
:101E58007B685B68002B13D0FFF7D0FC386108E083
:101E6800FFF7CCFC02463B69D31A642B01D9032344
:101E780004E2764B1B6803F40033002BF0D014E027
:101E8800FFF7BCFC386108E0FFF7B8FC02463B6985
:101E9800D31A642B01D90323F0E16C4B1B6803F4BC
:101EA8000033002BF0D100E000BF7B681B6803F013
:101EB8000203002B63D0654B9B6803F00C03002BD7
:101EC8000BD0624B9B6803F00C03082B1CD15F4BB3
:101ED8005B6803F48003002B16D15C4B1B6803F08E
:101EE8000203002B05D07B68DB68012B01D001239E
:101EF800C4E1564B1B6823F0F8027B681B69DB00C2
:101F0800524913430B603AE07B68DB68002B20D012
:101F18004F4B01221A60FFF771FC386108E0FFF7A8
:101F28006DFC02463B69D31A022B01D90323A5E1B4
:101F3800464B1B6803F00203002BF0D0434B1B6891
:101F480023F0F8027B681B69DB00404913430B60F0
:101F580015E03F4B00221A60FFF750FC386108E09B
:101F6800FFF74CFC02463B69D31A022B01D9032325
:101F780084E1364B1B6803F00203002BF0D17B6829
:101F88001B6803F00803002B30D07B685B69002BCB
:101F980016D0304B01221A60FFF730FC386108E098
:101FA800FFF72CFC02463B69D31A022B01D9032305
:101FB80064E1264B5B6F03F00203002BF0D015E0C1
:101FC800244B00221A60FFF719FC386108E0FFF77C
:101FD80015FC02463B69D31A022B01D903234DE1B4
:101FE8001A4B5B6F03F00203002BF0D17B681B6870
:101FF80003F00403002B00F0A0800023FB75134BB3
:102008001B6C03F08053002B0FD10023BB600F4BD8
:102018001B6C0E4A43F0805313640C4B1B6C03F08B
:102028008053BB60BB680123FB750B4B1B6803F433
:102038008073002B21D1084B1B68074A43F4807337
:102048001360FFF7DBFB386111E000BF0038024086
:1020580000004742800E474200700040FFF7CEFB69
:1020680002463B69D31A022B01D9032306E1854BAB
:102078001B6803F48073002BF0D07B689B68012BEE
:1020880006D1814B1B6F804A43F0010313671CE0A4
:102098007B689B68052B0CD17B4B1B6F7A4A43F0FE
:1020A80004031367784B1B6F774A43F001031367E8
:1020B8000BE0754B1B6F744A23F001031367724BD7
:1020C8001B6F714A23F0040313677B689B68002B1E
:1020D80015D0FFF793FB38610AE0FFF78FFB024644
:1020E8003B69D31A41F28832934201D90323C5E0F0
:1020F800654B1B6F03F00203002BEED014E0FFF7D3
:102108007DFB38610AE0FFF779FB02463B69D31A89
:1021180041F28832934201D90323AFE05A4B1B6F37
:1021280003F00203002BEED1FB7D012B05D1564BAA
:102138001B6C554A23F0805313647B689B69002B02
:1021480000F09B80504B9B6803F00C03082B5CD07D
:102158007B689B69022B41D14C4B00221A60FFF728
:102168004DFB386108E0FFF749FB02463B69D31A8B
:10217800022B01D9032381E0434B1B6803F0007352
:10218800002BF0D17B68DA697B681B6A1A437B688D
:102198005B6A9B011A437B689B6A5B08013B1B04D3
:1021A8001A437B68DB6A1B06374913434B60374B7E
:1021B80001221A60FFF722FB386108E0FFF71EFBD7
:1021C80002463B69D31A022B01D9032356E02E4B52
:1021D8001B6803F00073002BF0D04EE02B4B00225D
:1021E8001A60FFF70BFB386108E0FFF707FB0246B0
:1021F8003B69D31A022B01D903233FE0224B1B680A
:1022080003F00073002BF0D137E07B689B69012B4A
:1022180001D1012332E01C4B5B68FB607B689B6942
:10222800012B28D0FB6803F480027B68DB699A42A3
:1022380021D1FB6803F03F027B681B6A9A421AD1DE
:10224800FA6847F6C07313407A68526A920193425B
:1022580011D1FB6803F440327B689B6A5B08013B41
:102268001B049A4207D1FB6803F070627B68DB6A43
:102278001B069A4201D0012300E0002318461837B4
:10228800BD4680BD007000400038024060004742F3
:1022980080B584B000AF786039607B68002B01D1CD
:1022A8000123CCE0684B1B6803F007033A689A42A5
:1022B8000CD9654B3A68D2B21A70634B1B6803F0AD
:1022C80007033A689A4201D00123B8E07B681B688B
:1022D80003F00203002B20D07B681B6803F0040383
:1022E800002B05D0594B9B68584A43F4E053936040
:1022F8007B681B6803F00803002B05D0534B9B68D1
:10230800524A43F460439360504B9B6823F0F002B9
:102318007B689B684D4913438B607B681B6803F09F
:102328000103002B44D07B685B68012B07D1474B26
:102338001B6803F40033002B19D101237FE07B686D
:102348005B68022B03D07B685B68032B07D13F4B8C
:102358001B6803F00073002B09D101236FE03B4B8E
:102368001B6803F00203002B01D1012367E0374B00
:102378009B6823F003027B685B68344913438B60D6
:10238800FFF73CFAF8600AE0FFF738FA0246FB6804
:10239800D31A41F28832934201D903234FE02B4BE1
:1023A8009B6803F00C027B685B689B009A42EBD148
:1023B800254B1B6803F007033A689A420CD2224B5C
:1023C8003A68D2B21A70204B1B6803F007033A68C8
:1023D8009A4201D0012332E07B681B6803F00403B2
:1023E800002B08D0194B9B6823F4E0527B68DB680C
:1023F800164913438B607B681B6803F00803002BA6
:1024080009D0124B9B6823F460427B681B69DB0090
:102418000E4913438B6000F021F802460B4B9B6872
:102428001B0903F00F030A49CB5C22FA03F3094A9C
:102438001360094B1B681846FFF79CF900231846E0
:102448001037BD4680BD00BF003C02400038024046
:10245800284B00080000002004000020B0B584B01C
:1024680000AF002179600021F96000213960002166
:10247800B9605249896801F00C0108290DD0082972
:1024880000F29480002902D0042903D08EE04C4B3E
:10249800BB608EE04B4BBB608BE04849496801F05C
:1024A8003F0179604549496801F48001002924D039
:1024B80042494968890908464FF0000140F2FF1473
:1024C8004FF0000500EA040201EA05033D4901FB5B
:1024D80003F0002101FB02F144183A49A2FB010173
:1024E800631819467B681A464FF00003FEF76EFA28
:1024F80002460B461346FB604AE0304B5B689B097B
:102508001A464FF0000340F2FF104FF0000102EAB4
:10251800000403EA0105204629464FF000024FF067
:1025280000034B0143EAD063420110461946001BE1
:1025380061EB05014FF000024FF000038B0143EA05
:1025480090638201121A63EB01034FF000004FF011
:102558000001D90041EA5271D00002460B46121917
:1025680045EB03034FF000004FF00001990241EAE8
:102578009251900202460B46104619467B681A464D
:102588004FF00003FEF722FA02460B461346FB60A3
:102598000A4B5B681B0C03F0030301335B003B60D1
:1025A800FA683B68B2FBF3F3BB6002E0044BBB6024
:1025B80000BFBB6818461037BD46B0BD00380240A2
:1025C8000024F40040787D0180B582B000AF7860C7
:1025D8007B68002B01D1012341E07B6893F83D30F3
:1025E800DBB2002B06D17B68002283F83C20786898
:1025F800FEF78CFF7B68022283F83D207B681A680F
:102608007B6804331946104600F0EAFC7B68012217
:1026180083F846207B68012283F83E207B680122EC
:1026280083F83F207B68012283F840207B680122E1
:1026380083F841207B68012283F842207B680122CD
:1026480083F843207B68012283F844207B680122B9
:1026580083F845207B68012283F83D200023184633
:102668000837BD4680BD000080B485B000AF7860F3
:102678007B6893F83D30DBB2012B01D001234EE09B
:102688007B68022283F83D207B681B68DA687B68D8
:102698001B6842F00102DA607B681B68234A934298
:1026A80022D07B681B68B3F1804F1DD07B681B6804
:1026B8001F4A934218D07B681B681E4A934213D066
:1026C8007B681B681C4A93420ED07B681B681B4AB8
:1026D800934209D07B681B68194A934204D07B68EF
:1026E8001B68184A934211D17B681B689B6803F0EA
:1026F8000703FB60FB68062B10D07B681B681A6811
:102708007B681B6842F001021A6007E07B681B685F
:102718001A687B681B6842F001021A600023184699
:102728001437BD465DF8047B704700BF00000140C8
:102738000004004000080040000C00400004014074
:10274800004001400018004080B582B000AF7860BA
:102758007B68002B01D1012341E07B6893F83D3071
:10276800DBB2002B06D17B68002283F83C20786816
:1027780000F039F87B68022283F83D207B681A68EC
:102788007B6804331946104600F02AFC7B68012256
:1027980083F846207B68012283F83E207B6801226B
:1027A80083F83F207B68012283F840207B68012260
:1027B80083F841207B68012283F842207B6801224C
:1027C80083F843207B68012283F844207B68012238
:1027D80083F845207B68012283F83D2000231846B2
:1027E8000837BD4680BD80B483B000AF786000BFB5
:1027F8000C37BD465DF8047B7047000080B584B097
:1028080000AF786039603B68002B09D17B6893F88A
:102818003E30DBB2012B14BF01230023DBB222E0E0
:102828003B68042B09D17B6893F83F30DBB2012B5E
:1028380014BF01230023DBB215E03B68082B09D144
:102848007B6893F84030DBB2012B14BF01230023CF
:10285800DBB208E07B6893F84130DBB2012B14BF90
:1028680001230023DBB2002B01D001237CE03B686D
:10287800002B04D17B68022283F83E2013E03B68DA
:10288800042B04D17B68022283F83F200BE03B68CD
:10289800082B04D17B68022283F8402003E07B6880
:1028A800022283F841207B681B6801223968184698
:1028B80000F080FE7B681B682D4A934204D07B6839
:1028C8001B682C4A934201D1012300E00023002B0E
:1028D80007D07B681B685A6C7B681B6842F400420F
:1028E8005A647B681B68224A934222D07B681B6823
:1028F800B3F1804F1DD07B681B681F4A934218D0E4
:102908007B681B681D4A934213D07B681B681C4A6E
:1029180093420ED07B681B68164A934209D07B68A5
:102928001B68184A934204D07B681B68164A934276
:1029380011D17B681B689B6803F00703FB60FB6889
:10294800062B10D07B681B681A687B681B6842F0EE
:1029580001021A6007E07B681B681A687B681B68BD
:1029680042F001021A60002318461037BD4680BDA8
:10297800000001400004014000040040000800403D
:10298800000C0040004001400018004080B582B0B3
:1029980000AF786039607B681B6800223968184688
:1029A80000F008FE7B681B682E4A934204D07B68BF
:1029B8001B682D4A934201D1012300E00023002B1C
:1029C80017D07B681B681A6A41F211131340002B59
:1029D8000FD17B681B681A6A40F244431340002BEE
:1029E80007D17B681B685A6C7B681B6822F400421D
:1029F8005A647B681B681A6A41F211131340002B52
:102A08000FD17B681B681A6A40F244431340002BBD
:102A180007D17B681B681A687B681B6822F0010273
:102A28001A603B68002B04D17B68012283F83E20A2
:102A380013E03B68042B04D17B68012283F83F2014
:102A48000BE03B68082B04D17B68012283F8402007
:102A580003E07B68012283F84120002318460837E9
:102A6800BD4680BD000001400004014080B582B031
:102A780000AF78607B681B681B6903F00203022BB8
:102A880022D17B681B68DB6803F00203022B1BD191
:102A98007B681B686FF002021A617B6801221A7753
:102AA8007B681B689B6903F00303002B03D07868DD
:102AB80000F077FA05E0786800F069FA786800F0C5
:102AC8007AFA7B6800221A777B681B681B6903F017
:102AD8000403042B22D17B681B68DB6803F0040322
:102AE800042B1BD17B681B686FF004021A617B689A
:102AF80002221A777B681B689B6903F44073002BDA
:102B080003D0786800F04DFA05E0786800F03FFAE5
:102B1800786800F050FA7B6800221A777B681B6897
:102B28001B6903F00803082B22D17B681B68DB684C
:102B380003F00803082B1BD17B681B686FF00802A1
:102B48001A617B6804221A777B681B68DB6903F0CB
:102B58000303002B03D0786800F023FA05E07868B7
:102B680000F015FA786800F026FA7B6800221A77D8
:102B78007B681B681B6903F01003102B22D17B684C
:102B88001B68DB6803F01003102B1BD17B681B68E4
:102B98006FF010021A617B6808221A777B681B683D
:102BA800DB6903F44073002B03D0786800F0F9F96F
:102BB80005E0786800F0EBF9786800F0FCF97B68CC
:102BC80000221A777B681B681B6903F00103012B3D
:102BD8000ED17B681B68DB6803F00103012B07D16A
:102BE8007B681B686FF001021A617868FEF720FAAB
:102BF8007B681B681B6903F08003802B0ED17B6800
:102C08001B68DB6803F08003802B07D17B681B6897
:102C18006FF080021A61786800F0E2FE7B681B683A
:102C28001B6903F04003402B0ED17B681B68DB68EF
:102C380003F04003402B07D17B681B686FF040020C
:102C48001A61786800F0C1F97B681B681B6903F09A
:102C58002003202B0ED17B681B68DB6803F0200360
:102C6800202B07D17B681B686FF020021A617868F7
:102C780000F0ACFE00BF0837BD4680BD80B586B009
:102C880000AFF860B9607A600023FB75FB6893F8C1
:102C98003C30012B01D10223AEE0FB68012283F80E
:102CA8003C207B680C2B00F29F8001A252F823F095
:102CB800ED2C0008F12D0008F12D0008F12D000879
:102CC8002D2D0008F12D0008F12D0008F12D000828
:102CD8006F2D0008F12D0008F12D0008F12D0008D6
:102CE800AF2D0008FB681B68B968184600F018FA91
:102CF800FB681B689A69FB681B6842F008029A61C6
:102D0800FB681B689A69FB681B6822F004029A61D9
:102D1800FB681B689969BB681A69FB681B680A43EA
:102D28009A6164E0FB681B68B968184600F068FAA5
:102D3800FB681B689A69FB681B6842F400629A6129
:102D4800FB681B689A69FB681B6822F480629A61B9
:102D5800FB681B689969BB681B691A02FB681B68DA
:102D68000A439A6143E0FB681B68B968184600F09B
:102D7800BDFAFB681B68DA69FB681B6842F0080249
:102D8800DA61FB681B68DA69FB681B6822F00402D9
:102D9800DA61FB681B68D969BB681A69FB681B683C
:102DA8000A43DA6123E0FB681B68B968184600F03B
:102DB80011FBFB681B68DA69FB681B6842F4006258
:102DC800DA61FB681B68DA69FB681B6822F48062B9
:102DD800DA61FB681B68D969BB681B691A02FB6862
:102DE8001B680A43DA6102E00123FB7500BFFB6838
:102DF800002283F83C20FB7D18461837BD4680BD6D
:102E080080B584B000AF786039600023FB737B68BD
:102E180093F83C30012B01D10223B4E07B680122F6
:102E280083F83C207B68022283F83D207B681B687E
:102E38009B68BB60BB6823F07703BB60BB6823F467
:102E48007F43BB607B681B68BA689A603B681B68F5
:102E5800B3F5005F3ED0B3F5005F00F28780B3F5AD
:102E6800805F00F08680B3F5805F7FD8702B1AD022
:102E7800702B7BD8602B50D0602B77D8502B3CD050
:102E8800502B73D8402B58D0402B6FD8302B64D0A0
:102E9800302B6BD8202B60D0202B67D8002B5CD030
:102EA800102B5AD062E07B6818683B6899683B68C9
:102EB8005A683B68DB6800F05DFB7B681B689B68B1
:102EC800BB60BB6843F07703BB607B681B68BA686C
:102ED8009A604FE07B6818683B6899683B685A6855
:102EE8003B68DB6800F046FB7B681B689A687B6878
:102EF8001B6842F480429A603CE07B6818683B6833
:102F080059683B68DB681A4600F0BAFA7B681B68A8
:102F18005021184600F013FB2CE07B6818683B68CA
:102F280059683B68DB681A4600F0D9FA7B681B6869
:102F38006021184600F003FB1CE07B6818683B68BA
:102F480059683B68DB681A4600F09AFA7B681B6888
:102F58004021184600F0F3FA0CE07B681A683B68D9
:102F68001B681946104600F0EAFA03E00123FB73D8
:102F780000E000BF7B68012283F83D207B680022C7
:102F880083F83C20FB7B18461037BD4680BD80B4D3
:102F980083B000AF786000BF0C37BD465DF8047B96
:102FA800704780B483B000AF786000BF0C37BD466F
:102FB8005DF8047B704780B483B000AF786000BFD1
:102FC8000C37BD465DF8047B704780B483B000AF12
:102FD800786000BF0C37BD465DF8047B7047000081
:102FE80080B485B000AF786039607B681B68FB608F
:102FF8007B68404A934213D07B68B3F1804F0FD06F
:103008007B683D4A93420BD07B683C4A934207D089
:103018007B683B4A934203D07B683A4A934208D183
:10302800FB6823F07003FB603B685B68FA68134336
:10303800FB607B682F4A93422BD07B68B3F1804FAB
:1030480027D07B682C4A934223D07B682B4A934233
:103058001FD07B682A4A93421BD07B68294A934237
:1030680017D07B68284A934213D07B68274A93423B
:103078000FD07B68264A93420BD07B68254A93423F
:1030880007D07B68244A934203D07B68234A934243
:1030980008D1FB6823F44073FB603B68DB68FA687F
:1030A8001343FB60FB6823F080023B685B691343B2
:1030B800FB607B68FA681A603B689A687B68DA622A
:1030C8003B681A687B689A627B680A4A934203D015
:1030D8007B680C4A934203D13B681A697B681A6380
:1030E8007B6801225A6100BF1437BD465DF8047B36
:1030F800704700BF00000140000400400008004085
:10310800000C004000040140004001400044014020
:103118000048014000180040001C0040002000400A
:1031280080B487B000AF786039607B681B6A23F091
:1031380001027B681A627B681B6A7B617B685B683B
:103148003B617B689B69FB60FB6823F07003FB6055
:10315800FB6823F00303FB603B681B68FA681343B2
:10316800FB607B6923F002037B613B689B687A699B
:1031780013437B617B68204A934203D07B681F4AD4
:1031880093420CD17B6923F008037B613B68DB68C1
:103198007A6913437B617B6923F004037B617B6855
:1031A800154A934203D07B68144A934211D13B6974
:1031B80023F480733B613B6923F400733B613B68F4
:1031C8005B693A6913433B613B689B693A691343FE
:1031D8003B617B683A695A607B68FA689A613B6828
:1031E8005A687B685A637B687A691A6200BF1C3721
:1031F800BD465DF8047B70470000014000040140B3
:1032080080B487B000AF786039607B681B6A23F0B0
:1032180010027B681A627B681B6A7B617B685B684B
:103228003B617B689B69FB60FB6823F4E043FB60C0
:10323800FB6823F44073FB603B681B681B02FA6859
:103248001343FB607B6923F020037B613B689B6829
:103258001B017A6913437B617B68224A934203D03E
:103268007B68214A93420DD17B6923F080037B61FF
:103278003B68DB681B017A6913437B617B6923F038
:1032880040037B617B68174A934203D07B68164AE8
:10329800934213D13B6923F480633B613B6923F478
:1032A80000633B613B685B699B003A6913433B6180
:1032B8003B689B699B003A6913433B617B683A69A9
:1032C8005A607B68FA689A613B685A687B689A63B7
:1032D8007B687A691A6200BF1C37BD465DF8047BBB
:1032E800704700BF000001400004014080B487B06F
:1032F80000AF786039607B681B6A23F480727B6852
:103308001A627B681B6A7B617B685B683B617B68D0
:10331800DB69FB60FB6823F07003FB60FB6823F04C
:103328000303FB603B681B68FA681343FB607B6917
:1033380023F400737B613B689B681B027A69134323
:103348007B617B68214A934203D07B68204A934281
:103358000DD17B6923F400637B613B68DB681B024A
:103368007A6913437B617B6923F480637B617B68A3
:10337800164A934203D07B68154A934213D13B699E
:1033880023F480533B613B6923F400533B613B6862
:103398005B691B013A6913433B613B689B691B01ED
:1033A8003A6913433B617B683A695A607B68FA68FB
:1033B800DA613B685A687B68DA637B687A691A6203
:1033C80000BF1C37BD465DF8047B70470000014014
:1033D8000004014080B487B000AF786039607B6832
:1033E8001B6A23F480527B681A627B681B6A3B6104
:1033F8007B685B687B617B68DB69FB60FB6823F447
:10340800E043FB60FB6823F44073FB603B681B6888
:103418001B02FA681343FB603B6923F400533B61CA
:103428003B689B681B033A6913433B617B68124AFC
:10343800934203D07B68114A934209D17B6923F4F4
:1034480080437B613B685B699B017A6913437B61BD
:103458007B687A695A607B68FA68DA613B685A68FF
:103468007B681A647B683A691A6200BF1C37BD46DC
:103478005DF8047B704700BF000001400004014074
:1034880080B487B000AFF860B9607A60FB681B6AE7
:103498007B61FB681B6A23F00102FB681A62FB6808
:1034A8009B693B613B6923F0F0033B617B681B012F
:1034B8003A6913433B617B6923F00A037B617A69AC
:1034C800BB6813437B61FB683A699A61FB687A6958
:1034D8001A6200BF1C37BD465DF8047B704780B494
:1034E80087B000AFF860B9607A60FB681B6A23F0A8
:1034F8001002FB681A62FB689B697B61FB681B6AA8
:103508003B617B6923F470437B617B681B037A69A9
:1035180013437B613B6923F0A0033B61BB681B013C
:103528003A6913433B61FB687A699A61FB683A69B7
:103538001A6200BF1C37BD465DF8047B704780B433
:1035480085B000AF786039607B689B68FB60FB687A
:1035580023F07003FB603A68FB68134343F00703EA
:10356800FB607B68FA689A6000BF1437BD465DF857
:10357800047B704780B487B000AFF860B9607A60A8
:103588003B60FB689B687B617B6923F47F437B61BD
:103598003B681A027B681A43BB6813437A69134372
:1035A8007B61FB687A699A6000BF1C37BD465DF88D
:1035B800047B704780B487B000AFF860B9607A6068
:1035C800BB6803F01F03012202FA03F37B61FB6867
:1035D8001A6A7B69DB431A40FB681A62FB681A6A3D
:1035E800BB6803F01F03796801FA03F31A43FB6809
:1035F8001A6200BF1C37BD465DF8047B70470000A7
:1036080080B584B000AF786039603B68002B09D181
:103618007B6893F84230DBB2012B14BF01230023EF
:10362800DBB222E03B68042B09D17B6893F8433076
:10363800DBB2012B14BF01230023DBB215E03B688A
:10364800082B09D17B6893F84430DBB2012B14BFF7
:1036580001230023DBB208E07B6893F84530DBB236
:10366800012B14BF01230023DBB2002B01D001235F
:103678006DE03B68002B04D17B68022283F842206E
:1036880013E03B68042B04D17B68022283F84320B3
:103698000BE03B68082B04D17B68022283F84420A6
:1036A80003E07B68022283F845207B681B680422BC
:1036B8003968184600F09EF97B681B685A6C7B686D
:1036C8001B6842F400425A647B681B68224A934292
:1036D80022D07B681B68B3F1804F1DD07B681B68C4
:1036E8001E4A934218D07B681B681D4A934213D028
:1036F8007B681B681B4A93420ED07B681B681A4A7A
:10370800934209D07B681B68184A934204D07B68AF
:103718001B68174A934211D17B681B689B6803F0AA
:103728000703FB60FB68062B10D07B681B681A68D0
:103738007B681B6842F001021A6007E07B681B681F
:103748001A687B681B6842F001021A600023184659
:103758001037BD4680BD00BF000001400004004096
:1037680000080040000C00400004014000400140F7
:103778000018004080B582B000AF786039607B687F
:103788001B6800223968184600F034F97B681B680A
:103798001A6A41F211131340002B0FD17B681B6882
:1037A8001A6A40F244431340002B07D17B681B6818
:1037B8005A6C7B681B6822F400425A647B681B6859
:1037C8001A6A41F211131340002B0FD17B681B6852
:1037D8001A6A40F244431340002B07D17B681B68E8
:1037E8001A687B681B6822F001021A603B68002B8C
:1037F80004D17B68012283F8422013E03B68042B44
:1038080004D17B68012283F843200BE03B68082B36
:1038180004D17B68012283F8442003E07B680122FD
:1038280083F84520002318460837BD4680BD0000B0
:1038380080B485B000AF786039607B6893F83C301D
:10384800012B01D102235AE07B68012283F83C2036
:103858007B68022283F83D207B681B685B68FB60FD
:103868007B681B689B68BB60FB6823F07003FB6088
:103878003B681B68FA681343FB607B681B68FA683F
:103888005A607B681B68214A934222D07B681B6878
:10389800B3F1804F1DD07B681B681D4A934218D036
:1038A8007B681B681B4A934213D07B681B681A4AC3
:1038B80093420ED07B681B68184A934209D07B68F4
:1038C8001B68174A934204D07B681B68154A9342C9
:1038D8000CD1BB6823F08003BB603B685B68BA68A7
:1038E8001343BB607B681B68BA689A607B680122D7
:1038F80083F83D207B68002283F83C20002318468B
:103908001437BD465DF8047B704700BF00000140D6
:103918000004004000080040000C00400004014082
:10392800004001400018004080B485B000AF7860C6
:1039380039600023FB607B6893F83C30012B01D190
:1039480002233DE07B68012283F83C20FB6823F0DA
:10395800FF023B68DB681343FB60FB6823F440729B
:103968003B689B681343FB60FB6823F480623B68F9
:103978005B681343FB60FB6823F400623B681B68C9
:103988001343FB60FB6823F480523B681B691343B5
:10399800FB60FB6823F400523B685B691343FB60E0
:1039A800FB6823F480423B68DB691343FB607B6858
:1039B8001B68FA685A647B68002283F83C2000235D
:1039C80018461437BD465DF8047B704780B483B051
:1039D80000AF786000BF0C37BD465DF8047B7047C8
:1039E80080B483B000AF786000BF0C37BD465DF887
:1039F800047B704780B487B000AFF860B9607A6024
:103A0800BB6803F01F03042202FA03F37B61FB681F
:103A18001A6A7B69DB431A40FB681A62FB681A6AF8
:103A2800BB6803F01F03796801FA03F31A43FB68C4
:103A38001A6200BF1C37BD465DF8047B7047000062
:103A480070B50D4D0D4C641BA4100026A64209D17B
:103A58000B4D0C4C01F056F8641BA4100026A6422E
:103A680005D170BD55F8043B98470136EEE755F887
:103A7800043B98470136F2E7184D0008184D000836
:103A8800184D00081C4D000802440346934200D11B
:103A9800704703F8011BF9E71FB553EC102B2648B4
:103AA80023F00041814207DC9FED211B002000F03C
:103AB8005BFE51EC100B07E02048814209DD10EE57
:103AC800100A1946FCF7AAFC41EC100B05B05DF88A
:103AD80004FB684600F034F800F00300012808D021
:103AE80002280DD0D0B99DED021B9DED000B0120E1
:103AF800DDE79DED021B9DED000B00F02DFAD8E7E8
:103B08009DED021B9DED000B012000F02DFE53ECF6
:103B1800102B10EE100A03F10041D5E79DED021BB2
:103B28009DED000B00F018FAF1E700BFAFF300803D
:103B38000000000000000000FB21E93FFFFFEF7FCD
:103B48002DE9F04F2DED028B55EC104BCA4B8BB085
:103B580025F0004898458246029508DC002200239B
:103B680080ED000BC0E902234FF0000B28E0C34BA7
:103B7800984578DC029BC24E002B10EE100AB0A3C9
:103B8800D3E90023294639DDFCF748FCB045044653
:103B98000D461BD0ACA3D3E90023FCF73FFC02463B
:103BA8000B46CAE9002320462946FCF737FCA6A3A2
:103BB800D3E90023FCF732FCCAE902014FF0010BFC
:103BC80058460BB0BDEC028BBDE8F08FA0A3D3E93B
:103BD8000023FCF723FCA0A3D3E9002304460D46E9
:103BE800FCF71CFC02460B46CAE90023204629467E
:103BF800FCF714FC98A3D3E90023DBE7FCF710FCDF
:103C0800B04504460D4616D08FA3D3E90023FCF730
:103C180007FC02460B46CAE9002320462946FCF762
:103C2800FDFB89A3D3E90023FCF7FAFB4FF0FF3B28
:103C3800CAE90201C4E786A3D3E90023FCF7F0FB35
:103C480085A3D3E9002304460D46FCF7E9FB0246A9
:103C58000B46CAE9002320462946FCF7DFFB7EA372
:103C6800D3E90023E0E7874B984500F3D98000F0BB
:103C780039FE55EC104B10EE100A79A3D3E9002356
:103C88002946FCF79DFA804B0022FCF7C9FBFCF79C
:103C980005FE8346FCF710FD02460B4643EC182B45
:103CA80067A3D3E90023FCF78BFA02460B462046AC
:103CB8002946FCF7B3FB64A3D3E9002306460F4665
:103CC80051EC180BFCF77CFABBF11F0F04460D46AC
:103CD8000DDC6E4B0BF1FF3253F82230434506D012
:103CE80022462B4630463946FCF798FB0FE02B4618
:103CF800224630463946FCF791FB4FEA2853039396
:103D0800C1F30A53C3EB1858B8F1100F02DCCAE923
:103D1800000139E04EA3D3E9002351EC180BFCF75E
:103D28004FFA04460D4602460B4630463946FCF724
:103D380075FB02460B468046894630463946FCF7F5
:103D48006DFB22462B46FCF769FB43A3D3E900230E
:103D580004460D4651EC180BFCF732FA22462B4666
:103D6800FCF75CFB02460B4604460D4640464946B6
:103D7800FCF754FB039AC1F30A53D31A312B24DC02
:103D8800CAE9000146464F46DAE90089304642460C
:103D98004B463946FCF742FB2B462246FCF73EFBD6
:103DA800029B002BCAE90201BFF60AAF09F10043E2
:103DB800CAF80430CAF80080CAF8080001F10043C4
:103DC800CAF80C30CBF1000BFAE627A3D3E900239D
:103DD80051EC180BFCF7F4F904460D4602460B4665
:103DE80040464946FCF71AFB02460B4606460F4674
:103DF80040464946FCF712FB22462B46FCF70EFBD1
:103E08001BA3D3E9002304460D4651EC180BFCF71D
:103E1800D7F922462B46FCF701FB04460D465FE71F
:103E28001B4B984536DD10EE102A2B4620462946B6
:103E3800FCF7F4FACAE90201CAE9000194E600BFF6
:103E480000004054FB21F93F3163621A61B4D03D50
:103E58000000601A61B4D03D7370032E8A19A33B29
:103E680083C8C96D305FE43F0000002E8A19A33B68
:103E7800C14920259A837B39FB21E93F7BD9024040
:103E8800FB21F93FFB2139410000E03F384B000896
:103E9800FFFFEF7F4FEA2854A4F2164410EE100AF1
:103EA800A8EB045110EE106A0F46FCF7F7FCFCF77C
:103EB80003FC02460B4630463946CDE90423FCF79D
:103EC800ADFA224B0022FCF77BF90F460646FCF7B9
:103ED800E5FCFCF7F1FB02460B4630463946CDE9D6
:103EE8000623FCF79BFA194B0022FCF769F9CDE988
:103EF800080104AD4FF00308A94600260027324602
:103F08003B46D5E90401C346083D08F1FF38FCF7F4
:103F180093FC0028F3D10E4B019302230093224611
:103F28005B465146484600F0DFF8029B002B83466B
:103F3800BFF646AEDAF8043003F10043CAF804309D
:103F4800DAF80C3003F100433AE700BF0000704193
:103F5800B84B0008000000002DE9F74F57EC106B34
:103F680027F00048B8F1795F8DED001B07DA10EEF5
:103F7800100A3946FCF792FC002800F08880324687
:103F88003B4630463946FCF71BF9514B00220446A4
:103F98000D46FCF715F940A3D3E9002382468B466A
:103FA80020462946FCF70CF93DA3D3E90023FCF78A
:103FB80037FA22462B46FCF703F93BA3D3E9002343
:103FC800FCF72CFA22462B46FCF7FAF838A3D3E97B
:103FD8000023FCF725FA22462B46FCF7F1F836A316
:103FE800D3E90023FCF71AFA22462B46FCF7E8F837
:103FF80033A3D3E90023FCF713FA22462B46FCF738
:10400800DFF822462B46FCF7DBF8DDE900230446FF
:104018000D4630463946FCF7D3F80B46024629468A
:104028002046FCF7FBF92B4B984506460F4610DC5B
:1040380002460B4650465946FCF7F0F90B4626490E
:1040480002460020FCF7EAF941EC100B03B0BDE88A
:10405800F08F224B20499845CCBF214DA8F500157B
:10406800002422462B460020FCF7D8F92246804639
:1040780089462B4650465946FCF7D0F932463B460E
:10408800FCF7CCF902460B4640464946DAE79FED75
:104098000E0BDBE7AFF30080D43888BEE9FAA8BD81
:1040A800C4B1B4BD9EEE213EAD529C804F7E923E7F
:1040B8009015CB19A001FA3E7751C1166CC1563F35
:1040C8004C5555555555A53F000000000000F03FE0
:1040D8000000E03F3233D33F0000F03F0000E93FEB
:1040E8000000D23F000000002DE9F04F2DED028BBB
:1040F800ADF5197D12F1140F08930191C64BA499DF
:10410800099053F821300493089B03F1FF33A8BFAB
:10411800D41E0693B2BF0024182394FBF3F46FF067
:10412800170304FB033303EB020A049B069A9FED73
:10413800B68B03EB0208A59BA71A20AE03EB8709F1
:104148000025454518DD089BDDF8188020AA9FED5D
:10415800AE8B02EBC305C3F101030DF5E07B0793BA
:10416800079B049A43449A422FDB8DED028BDDF8BE
:1041780024902F4600261BE0EF4207D459F825006B
:10418800FCF79AFAE6E802010135DAE751EC180B78
:10419800F8E7D7E90023F9E80201FCF711F802462D
:1041A8000B46DDE90201FCF73BF9CDE902010136D6
:1041B800069B9E42A7F10807EBDD9DED027B0835C3
:1041C800ABEC027B08F10108CAE7049B0CAA02EBDE
:1041D80083030B93A59B03EB8403049C0A9398AB7E
:1041E80003EBC40353E928670DF1300BCDF808B091
:1041F8002546002D78DC47EC106B504600F0FCFBA0
:1042080057EC106B00224FF07F5310EE100A39461E
:10421800FBF7D6FF41EC100B00F06EFB7F4B51EC27
:10422800100B0022FBF7CCFF02460B4630463946FE
:10423800FCF7F4F80F460646FCF730FB0790FCF74E
:104248003BFA02460B4630463946FCF7E7F8BAF126
:10425800000F06460F4670DD621E0CAB079D53F833
:104268002200CAF1180140FA01F31D448B40C01A1C
:104278000CAB079543F82200CAF1170340FA03F381
:104288000293029B002B66DD079B002201330793F4
:1042980015466FF07F41944200F39980BAF1000F00
:1042A80007DDBAF1010F00F0A580BAF1020F00F0A6
:1042B800C180029B022B4ED132463B465849002012
:1042C800FCF7ACF806460F46002D44D050469FED4B
:1042D800500B00F091FB3046394653EC102BFCF79D
:1042E8009DF806460F4636E04E4B002230463946CA
:1042F800FBF766FFFCF7D2FAFCF7DEF94A4B00221F
:1043080080468946FBF75CFF02460B463046394635
:10431800FCF784F8FCF7C2FA029B43F8040B013D52
:10432800029370AB03EBC503D3E90023404649462B
:10433800FCF776F806460F465BE705D1631E0CAA24
:1043480052F82300C3159BE7384B0022FCF792FA7A
:10435800002839D102900022002330463946FCF764
:104368006BFA002800F0B48004F1FF3B5B460022A2
:1043780004998B4265DA002A7BD00CABAAF1180AA3
:1043880053F82B30002B00F0A0809FED210B5046F6
:1043980000F032FB234F55EC104BD8460026B8F1FD
:1043A800000F80F2CF809FED188B5F464FF000081A
:1043B800002FC0F2FD8070ABDFF874A055EC184BED
:1043C80003EBC7090026E5E0022302935CE7DBF86C
:1043D800003055B923B1C3F18073CBF80030012305
:1043E80001320BF1040B1D4655E7CB1ACBF8003010
:1043F8002B46F5E7621E0CAB53F82230C3F31603C5
:104408000CA941F8223054E7000000000000000029
:10441800000000000000F03F004D000800002040B0
:104428000000F03F0000703E000070410000E03FD7
:10443800C04C0008621E0CAB53F82230C3F31503BE
:10444800DEE70CA951F82310013B0A4390E701333A
:1044580052F8041D0029FAD0089AE318A61820AAD1
:10446800651C02EBC6060293029BAB4204DA1C46AB
:10447800B5E60B9A0123EBE70A9B53F82500FCF7F6
:104488001BF9E6E80201099BB3461C4600274FF0DA
:1044980000084FF00009069B9F4206DD70AB03EB56
:1044A800C503C3E900890135DEE77BE90223F4E8A7
:1044B8000201FBF785FE02460B4640464946FBF7DC
:1044C800AFFF013780468946E5E70BF1FF3B54E72C
:1044D80047EC106BCAF1000000F08EFA57EC106B35
:1044E8009F4B10EE100A00223946FCF7C3F900B3BF
:1044F8009C4B002230463946FBF762FEFCF7CEF9AA
:104508000546FCF7D9F8964B0022FBF759FE0B46F7
:10451800024639463046FBF781FFFCF7BFF904F144
:10452800010B0CAB0AF1180A43F8240043F82B508E
:104538002BE730463946FCF7B1F90CABA34643F8F4
:10454800240022E770AB03EBC8090CAB53F8280032
:10455800FCF7B2F822462B46FBF732FE3246C9E991
:1045680000013B4620462946FBF72AFE08F1FF38A2
:1045780004460D4613E7F9E80223FAE80201FBF7BF
:104588001FFE02460B4620462946FBF749FF013627
:1045980004460D46049B9E4201DCB045EBDA48AB6D
:1045A80003EBC803C3E90045013F08F10108FFE632
:1045B800A49B022B0BDC002B6EDC45D0079B03F081
:1045C80007000DF5197DBDEC028BBDE8F08FA49BAB
:1045D800032BF3D148AB03EBCB0AD046D946B9F14C
:1045E800000FA8F1080864DC5C46012CAAF1080A4F
:1045F8007EDC00200021BBF1010F00F39780029BB5
:10460800DDE94856DDE94A78002B40F09980019BA6
:10461800C3E90056C3E90278C3E90401CEE748AB11
:1046280003EBCB03D3E90023FBF7FAFE0BF1FF3BC7
:10463800BBF1000FF3DA029B13B101F100431946F5
:10464800019BC3E90001B9E700200021F0E748AB6E
:1046580003EBC403D3E90023FBF7E2FE013C002C83
:10466800F5DA029BE3B1024601F10043019CC4E97B
:10467800002302460B46DDE94801FBF7CFFE4AADB1
:104688000124A3450FDA029B13B101F10043194637
:10469800019BC3E9020191E75C4600200021DEE7A7
:1046A80002460B46E2E7F5E80223FBF7B9FE0134C0
:1046B800E7E7D8E90045D8E90267204632463B4695
:1046C8002946FBF7ADFECDE9040102460B4620461C
:1046D8002946FBF7A3FE32463B46FBF7A1FE9DEDBC
:1046E800047BC8E9020188ED007B09F1FF3976E710
:1046F800DAE90089DAE90267404632463B4649462C
:10470800FBF78EFECDE9040102460B4640464946BA
:10471800FBF784FE32463B46FBF782FE9DED047BA9
:10472800CAE902018AED007B013C5EE748AB03EB76
:10473800CB03D3E90023FBF773FE0BF1FF3B5AE7EA
:10474800019B019A1D6006F100445C609F6008F1BE
:104758000043D36001F10043106153612EE700BFAD
:10476800000070410000703E2DE9F04F2DED048BE4
:10477800B0EE418AF0EE618A55EC104B83B025F01B
:104788000043B3F1795F019006DA10EE100A29466A
:10479800FCF784F8002851D022462B4620462946AB
:1047A800FBF70EFD82468B4602460B4620462946FD
:1047B800FBF706FD41A3D3E900238046894650460E
:1047C8005946FBF7FDFC3FA3D3E90023FBF726FE80
:1047D80052465B46FBF7F4FC3CA3D3E90023FBF706
:1047E8001FFE52465B46FBF7EBFC3AA3D3E90023D6
:1047F800FBF714FE52465B46FBF7E2FC37A3D3E90E
:104808000023FBF70DFE019B06460F46EBB9024657
:104818000B4650465946FBF7D3FC25A3D3E90023A2
:10482800FBF7FCFD42464B46FBF7CAFC02460B462B
:1048380020462946FBF7F4FD04460D4645EC104B8F
:1048480003B0BDEC048BBDE8F08F1B4B51EC180B8B
:104858000022FBF7B5FC324641EC190B3B464046BB
:104868004946FBF7ADFC02460B4651EC190BFBF72A
:10487800D5FD52465B46FBF7A3FC53EC182BFBF720
:10488800CDFD0BA3D3E9002306460F464046494613
:10489800FBF796FC02460B4630463946FBF7C0FD4F
:1048A80002460B4620462946FBF7B8FDC4E700BF81
:1048B800495555555555C53F0000E03F7CD5CF5A61
:1048C8003AD9E53DEB9C2B8AE6E55A3E7DFEB15789
:1048D800E31DC73ED561C119A0012A3FA6F81011F2
:1048E8001111813F51EC100B10EE102A21F00043FA
:1048F80043EC102B7047000051EC100B2DE9F041F0
:10490800C1F30A57A7F2FF36132E10EE105A10EE15
:10491800108A0C4632DC002E14DA33A3D3E90023C4
:10492800FBF77EFD00220023FBF7AEFF38B1002C19
:1049380057DA24F000431D4301D02D4C00252146B1
:10494800284625E02B4F374101EA070303431FD0D0
:1049580025A3D3E90023FBF763FD00220023FBF71F
:1049680093FF0028EBD0002CBEBF4FF4801343FA0E
:1049780006F6A41924EA07040025E0E7332E0BDD28
:10498800B6F5806F04D110EE102A0B46FBF748FDF0
:1049980041EC100BBDE8F081A7F213474FF0FF334D
:1049A80023FA07F70742F3D00FA3D3E90023FBF755
:1049B80037FD00220023FBF767FF0028BFD0002C3B
:1049C80002DA142E03D1013425EA0705B7E70123DB
:1049D800C6F1340603FA06F63544454538BFE418EF
:1049E800F2E700252C46AAE79C7500883CE4377E50
:1049F8000000F0BFFFFF0F0070B555EC104BC5F37A
:104A08000A5206462B469AB925F00043234336D06E
:104A1800394B294610EE100A0022FBF7D1FB374B21
:104A28009E4204460D4610DA2BA3D3E900233AE050
:104A380040F2FF718A420CD110EE102A2046294616
:104A4800FBF7EEFC04460D4619E0C1F30A520B468B
:104A5800363A324440F2FE718A4208DD002D20A128
:104A6800D1E900011CDA20A1D1E9000118E0002AEF
:104A780008DD23F0FF4323F4E00343EA025545EC45
:104A8800104B70BD12F1350F19DA4CF250339E42BB
:104A980005F000430ADD12A1D1E90001002BE2D1A3
:104AA8000FA3D3E90023FBF78BFBCBE70AA1D1E9DE
:104AB8000001002BB8D00EA1D1E90001B4E723F022
:104AC800FF43363223F4E00343EA025120460C4BFD
:104AD8000022E8E7AFF3008059F3F8C21F6EA50182
:104AE8009C7500883CE4377E9C7500883CE437FE62
:104AF80059F3F8C21F6EA58100005043B03CFFFF78
:104B08000000903CF8B500BFF8BC08BC9E46704752
:0C4B1800F8B500BFF8BC08BC9E46704712
:104B28000000000000000000010203040607080955
:104B3800FB21F93FFB2109407CD91240FB21194098
:104B48007A6A1F407CD92240BBFD2540FB212940C1
:104B58003A462C407A6A2F405C4731407CD9324033
:104B68009C6B3440BBFD3540DB8F3740FB2139401F
:104B78001BB43A403A463C405AD83D407A6A3F40D6
:104B88004C7E40405C4741406C1042407CD94240DA
:104B98008CA243409C6B4440AC344540BBFD45402F
:104BA800CBC64640DB8F4740EB584840FB21494085
:104BB80083F9A200444E6E00FC291500D157270046
:104BC800DD34F50062DBC0003C999500419043005C
:104BD8006351FE00BBDEAB00B761C5003A6E24002E
:104BE800D24D42004906E00009EA2E001C92D1008D
:104BF800EB1DFE0029B11C00E83EA700F535820038
:104C080044BB2E009CE98400B4267000417E5F00FE
:104C1800D6913900538339009CF439008B5F8400A6
:104C280028F9BD00F81F3B00DEFF97000F9805002C
:104C3800112FEF000A5A8B006D1F6D00CF7E3600D2
:104C480009CB2700464FB7009E663F002DEA5F005C
:104C5800BA277500E5EBC7003D7BF100F73907007F
:104C680092528A00FB6BEA001FB15F00085D8D005D
:104C7800300356007BFC4600F0AB6B0020BCCF0035
:104C880036F49A00E3A91D005E619100081BE60056
:104C980085996500A0145F008D40680080D8FF00EA
:104CA80027734D0006063100CA561500C9A87300BF
:104CB8007BE260006B8CC00000000040FB21F93FE4
:104CC800000000002D44743E000000809846F83C27
:104CD8000000006051CC783B00000080831BF03955
:104CE8000000004020257A38000000802282E33648
:104CF800000000001DF369350200000003000000F9
:084D0800040000000600000099
:084D1000F4BCFF7F010000006C
:044D1800AD010008E1
:044D1C008901000801
:0C4D20000024F40010000000010000005E
:04000005080016E5F4
:00000001FF
